:020000040800F2
:10000000C8050020010100087B0B00081F0500083F
:10001000770B0008BB020008FF1800080000000072
:10002000000000000000000000000000A90F000810
:10003000BF02000800000000550D00084D11000827
:100040001B0100081B0100081B0100081B01000820
:100050001B0100081B0100081B0100081B01000810
:100060001B0100081B0100081B0100081B01000800
:100070001B0100081B0100081B0100081B010008F0
:100080001B0100081B0100081B0100081B010008E0
:100090001B0100081B0100081B01000845030008A4
:1000A0001B0100081B0100081B0100081B010008C0
:1000B0001B0100081B0100081B0100081B010008B0
:1000C0001B0100081B0100081B0100081B010008A0
:1000D0001B0100084D1500081B01000885150008CC
:1000E0001B0100081B0100081B010008DFF80CD0F1
:1000F00000F070F8004800472D190008C8050020DE
:100100000648804706480047FEE7FEE7FEE7FEE7B1
:10011000FEE7FEE7FEE7FEE7FEE7FEE75111000817
:10012000ED00000840EA01039B0703D009E008C97D
:10013000121F08C0042AFAD203E011F8013B00F8AC
:10014000013B521EF9D2704770B5064601F0DAFB4A
:10015000046805460A220021304600F002F82C60AF
:1001600070BD2DE9F04791460F46804604460026B3
:1001700014F8015B2DB100F03FF80068405DC00746
:10018000F6D12B2D02D02D2D18D0641E4A463946AB
:10019000204600F035F827B13968A14201D1C7F8EF
:1001A000008071054FF002040BD54042002803DDAA
:1001B00001F0A8FB0460A007BDE8F08746F4806664
:1001C000E4E70028F8DA01F09DFB04606FF00040DE
:1001D000F2E70000064C074D06E0E06840F001033E
:1001E00094E8070098471034AC42F6D3FFF782FF3B
:1001F000D41B0008F41B000800487047D01B0008FF
:100200002DE9F05F82460078002715468B460AF1FB
:100210000104B946302801D09DB113E014F8010B58
:100220000127782803D0582801D045B10AE00DB144
:10023000102D07D10027102514F8010B02E0082526
:1002400000E00A250026B0460EE005FB080005FB8D
:1002500006F1012701EB10461FFA80F8B6F5803F42
:1002600000D3B94614F8010B294600F018F800280D
:10027000EBDABBF1000F05D00FB1641E00E054466D
:10028000CBF80040B9F1000F06D001F03BFB022192
:100290000160C81EBDE8F09F48EA0640FAE73A2828
:1002A00000D2303820F02002412A01D3A2F13700D9
:1002B000884201D34FF0FF30704700BFFEE7704720
:1002C00000B5034603E04FF47A7000F005F8181EFD
:1002D000A3F10103F7D100BD00EBC001C9004FF04D
:1002E000E0225161002191610521116100BF4FF0B1
:1002F000E021096901F480310029F8D004214FF090
:10030000E02211617047000070B50546092D00DD3F
:1003100000250948465D00240BE046FA04F000F091
:100320000102064830F81410054800F0F3F8601C8C
:10033000C4B2082CF1DB70BD140000201E000020A8
:1003400000080140704770B505460E46002404E0E1
:10035000285D01F0EBFB601CC4B2B442F8DB322034
:10036000FFF7AEFF70BD000000B589B00CA207CA50
:1003700006AB07C3092106A8FFF7E5FF0BA207CAD2
:1003800003AB07C3092103A8FFF7DDFF0AA207CAD1
:100390008DE8070009216846FFF7D5FF09B000BDC9
:1003A0007E00080100D500ABCD0000007E000801F2
:1003B00000D102ABCD0000007E000901000000ABBF
:1003C000CD0000000EB504A207CA8DE80700092180
:1003D0006846FFF7B8FF0EBD7E000801000201ABC2
:1003E000CD0000002DE9F041024600250026002046
:1003F00000230024002791F803C00CF00F0591F8AA
:1004000003C00CF0100CBCF1000F03D091F802C037
:100410004CEA050591F800C0BCF1000F31D014681A
:1004200000202BE04FF0010C0CFA00F3B1F800C0F3
:100430000CEA03069E4220D183004FF00F0C0CFA09
:1004400003F7BC4305FA03FC4CEA040491F803C02B
:10045000BCF1280F06D14FF0010C0CFA00FCC2F8D9
:1004600014C00AE091F803C0BCF1480F05D14FF069
:10047000010C0CFA00FCC2F810C0401C0828D1D3B3
:100480001460B1F800C0BCF1FF0F34DD54680020E7
:100490002EE000F1080C4FF0010808FA0CF3B1F857
:1004A00000C00CEA03069E4221D183004FF00F0CDE
:1004B0000CFA03F7BC4305FA03FC4CEA040491F878
:1004C00003C0BCF1280F05D100F1080C08FA0CF8A4
:1004D000C2F8148091F803C0BCF1480F07D100F1B5
:1004E000080C4FF0010808FA0CF8C2F81080401C04
:1004F0000828CED35460BDE8F081024600209368FE
:100500000B400BB1012000E00020704741617047B3
:10051000016170470AB1016100E04161704700BFAD
:10052000FEE70146487A08B9012070470020FCE741
:10053000F8B5044600200090002621E000F020F9E4
:100540009DF800100844C0B28DF8000000F022F9B8
:100550009DF801100844C0B28DF8010000F086FC3F
:100560009DF802100844C0B28DF8020000F088FC2B
:100570009DF803100844C0B28DF80300701CC6B289
:10058000052EDBDB012020726072002511E01DF8D2
:100590000500022801DD012100E00021201D415558
:1005A000405D10B90020607201E000202072681CDC
:1005B000C5B2042DEBDBF8BD08B50121102000F019
:1005C00079FC48208DF803004FF46040ADF800003E
:1005D00003208DF8020069460748FFF703FF012159
:1005E000082000F067FC4FF48050ADF80000694629
:1005F0000248FFF7F7FE08BD00100140000C014063
:1006000008B50121082000F055FC0220ADF80000DB
:1006100010208DF8030003208DF80200694604487D
:10062000FFF7E0FE02210248FFF772FF08BD00005D
:10063000000C014070B504460A2C1FDB0A2094FB15
:10064000F0F0C5B20A2094FBF0F100FB1140C6B2F5
:100650000A2000F023F80520FFF732FE284600F0BC
:100660001DF80520FFF72CFE304600F017F8052096
:10067000FFF726FE0B2000F011F80EE00A2000F034
:100680000DF80520FFF71CFEE0B200F007F805208A
:10069000FFF716FE0B2000F001F870BD70B50446A0
:1006A00072B602211C48FFF733FF4FF47A70FFF750
:1006B00013FE02211848FFF729FF4FF47A60FFF775
:1006C0000BFE002520E002211348FFF721FF04F074
:1006D000010058B14FF4FA70FFF7FEFD02210E48F9
:1006E000FFF714FFD220FFF7F7FD0AE0D220FFF753
:1006F000F3FD02210848FFF709FF4FF4FA70FFF7F6
:10070000EBFD6410681CC5B2082DDCDB0221024839
:10071000FFF7FEFE62B670BD000C014010B500246C
:100720004FF400410A48FFF7E8FE70B91420FFF7C4
:10073000C7FD00BF4FF400410548FFF7DEFE00286B
:10074000F8D01420FFF7BCFD0124204610BD0000A6
:100750000008014008B50121042000F0ABFB48204F
:100760008DF803004FF40040ADF8000003208DF831
:10077000020069460148FFF735FE08BD0008014048
:1007800010B54FF480410248FFF7B7FE10BD0000DE
:100790000010014010B54FF400510248FFF7ADFEC4
:1007A00010BD00000010014008B50121042000F038
:1007B00081FB10208DF80300FF20ADF8000002201F
:1007C0008DF8020069460448FFF70CFEFF2102483D
:1007D000FFF79EFE08BD0000000801402DE9F05F14
:1007E00004460D46287908B9012000E00020804623
:1007F000687908B9012000E000200646A87908B908
:10080000012000E000200746E87908B9012000E057
:1008100000208146687A40B36088401C6080608810
:10082000B0F5FA7F06DD02202070002001F020F9EB
:10083000BDE8F09F94F90100002806DD00231A4668
:100840001946322001F058F90EE094F90100002811
:1008500006DA002332221946184601F04DF903E06A
:100860000021462001F031F9E2E70020608008EB2A
:1008700006003844484400F0FF0AE07978B1BAF144
:10088000030F0CDB94F907B00020E071FA21462039
:1008900001F01BF95946204600F0FBF8C8E7287A1A
:1008A000F8B194F90100022804DA94F9010010F17A
:1008B000020F11DC94F90100002806DD00231A461E
:1008C0001946322001F018F90AE0002332221946B5
:1008D000184601F011F903E00021322001F0F5F88B
:1008E000A6E76079002814DD6079401E607194F9F4
:1008F0000100002806DD00231A4619465A2001F09F
:10090000FBF805E000235A221946184601F0F4F8D6
:100910008EE706B9E7B1B9F1000F19D02079401C74
:100920002071E07948B92079062806DB0020207183
:100930000121204600F0ADF805E000231A461946D3
:100940005A2001F0D9F8022060700F20607168E031
:10095000B8F1000F1BD007B9CEB12079401C20712F
:10096000E07948B92079062806DB00202071411E75
:10097000204600F08EF805E000235A22194618465A
:1009800001F0BAF8FE2060700F20607149E0B8F104
:10099000000F0CD000235A221946184601F0ACF87B
:1009A000FD206070002020710F20607139E0B9F1E6
:1009B000000F0CD000231A4619465A2001F09CF86B
:1009C00003206070002020710F20607129E05EB16B
:1009D00057B90023502219463C2001F08DF8FF2022
:1009E0006070002020711CE05EB957B100233C22EA
:1009F0001946502001F080F801206070002020711D
:100A00000FE046B13FB10021462001F05EF8002022
:100A10006070207105E00021322001F056F80020BE
:100A2000207100BF04E770B504460D4694F901003B
:100A3000002806DD00231A461946322001F05CF832
:100A400005E0002332221946184601F055F82846E1
:100A5000FFF767FD18B1012020700020608070BD95
:100A600070B504460D464FF4FA71462001F00CF8BB
:100A70004FF4FA71462001F028F80120207070BD73
:100A80000021017041704180017141718171C1711A
:100A90007047FEB505460C4600261E2000F0E8FF14
:100AA000002C06DA002355221946184601F024F8D6
:100AB00005E000231A461946552001F01DF84FF4B1
:100AC0009670FFF7FDFB4FF4967620E06846FFF73F
:100AD0002FFD9DF8080030B99DF8050010B19DF874
:100AE000060000B916E0002C06DA0023552219464C
:100AF000184601F001F805E000231A461946552072
:100B000000F0FAFF0520FFF7DBFB701D86B2B6F59B
:100B1000487FDBDB00BF002000F0AAFF002C02DAD8
:100B20004FF0FF3000E001206870FEBD70B5054653
:100B30000C462046FFF7FCFC287830B1012809D08C
:100B400002280CD0032813D10EE021462846FFF7D7
:100B500087FF0EE021462846FFF740FE09E02146C8
:100B60002846FFF760FF04E0002000F081FF00E06E
:100B700000BF00BF70BD00BFFEE7704770B5002129
:100B800000230F22C47804B3154C246804F4E064F5
:100B9000C4F5E064210AC1F10403CA40447804FAB0
:100BA00003F184781440214309010E4C0678A155C5
:100BB000047804F01F050124AC4005786D11AD00E8
:100BC00005F1E025C5F8004109E0047804F01F05AF
:100BD0000124AC40044D0678761145F8264070BDDE
:100BE0000CED00E000E400E080E100E00249014398
:100BF000024A1160704700000000FA050CED00E0A9
:100C000000B589B00121042000F044F90121082039
:100C100000F050F94020ADF8200018208DF8230096
:100C200003208DF8220008A94848FFF7DBFB80204D
:100C3000ADF8200018208DF8230003208DF8220045
:100C400008A94248FFF7CEFB4FF48070ADF82000B2
:100C500018208DF8230003208DF8220008A93B48B6
:100C6000FFF7C0FB4FF40070ADF8200018208DF89E
:100C7000230003208DF8220008A93448FFF7B2FBB7
:100C80006320ADF818002320ADF814000020ADF863
:100C90001A00ADF8160005A92D4800F005FC6020EB
:100CA000ADF804000120ADF806000020ADF80A0000
:100CB000ADF80C0001A9264800F092FA6020ADF8CA
:100CC00004000120ADF806000020ADF80A00ADF8E0
:100CD0000C0001A91E4800F0D9FA6020ADF804000C
:100CE0000120ADF806000020ADF80A00ADF80C00B8
:100CF00001A9174800F02AFB6020ADF8040001208C
:100D0000ADF806000020ADF80A00ADF80C0001A90E
:100D10000F4800F075FB08210D4800F0ADFA0821DE
:100D20000B4800F005FB0821094800F05FFB082193
:100D3000074800F0A3FB0121054800F039FA012122
:100D4000034800F041FA09B000BD0000000C01406A
:100D5000000800407047000070B53C48007800B9BA
:100D600070BD00203949087000243948057801E039
:100D7000681EC5B2002D0CDD681E3649085C2028AF
:100D8000F6DD681E085C0D28F2D0681E085C0A2893
:100D9000EED000202F4948550846FFF7D5F984B218
:100DA000B4B9002D14DD00200EE02A49095C312978
:100DB00008DB2849095C392904DC2649095C3039FB
:100DC0008CB203E0411CC8B2A842EEDB00BF00BFFA
:100DD000012C36DB092C34DC042C19D11E48008888
:100DE000B0B91E480078401C1C49087040F2DC5025
:100DF0001949088019480078012802D11849C8719A
:100E000006E016480078022802D1FF201449C87174
:100E1000601E012181408EB212480088304050B9D6
:100E20001048008830430F490880E0B2FFF76CFAA1
:100E30002046FFF7FFFB092C02D101200A49087068
:100E400002E00020FFF760FA00BF89E731000020D0
:100E500030000020BA0000203C0000203A000020B2
:100E600040000020380000203600002010B54FF46C
:100E700000410248FFF741FB10BD00000010014097
:100E800010B54FF480510248FFF737FB10BD00004A
:100E9000000C014029B1064AD2690243044BDA61D1
:100EA00004E0034AD2698243014BDA6170470000D3
:100EB0000010024029B1064A92690243044B9A612C
:100EC00004E0034A92698243014B9A617047000033
:100ED0000010024030B500210022002400232D4DD7
:100EE0006D6805F00C0121B1042905D0082923D132
:100EF00005E0294D056022E0274D05601FE0254DE6
:100F00006D6805F47012234D6D6805F48034022578
:100F100005EB92421CB9214D554305600BE01D4D78
:100F20006D6805F400351DB11C4D5543056002E0A8
:100F3000194D5543056002E0174D056000BF00BF25
:100F4000144D6D6805F0F0010909154D6B5C0568DD
:100F5000DD4045600F4D6D6805F4E061090A104DF4
:100F60006B5C4568DD4085600A4D6D6805F4605135
:100F7000C90A0B4D6B5C4568DD40C560054D6D6869
:100F800005F44041890B074D6B5CC568B5FBF3F573
:100F9000056130BD0010024000127A0000093D00DA
:100FA00000000020100000207047000000B587B04E
:100FB00001218803FFF77EFF01210420FFF77AFF5C
:100FC00018208DF81B004FF40070ADF818000320B6
:100FD0008DF81A0006A92148FFF704FA48208DF879
:100FE0001B004FF48060ADF8180003208DF81A0044
:100FF00006A91A48FFF7F6F94FF4E13002900020F5
:10100000ADF814000C20ADF812000020ADF810006F
:10101000ADF80E00ADF80C0002A9114800F0FAFB83
:10102000012240F225510E4800F0CFFB4FF4A060A2
:10103000FFF7DCFD25208DF8040001208DF8070066
:101040008DF805008DF8060001A8FFF797FD012136
:10105000034800F077FB07B000BD00000008014026
:101060000038014010B500F001F810BD0CB50020AB
:10107000019000903348006840F4803031490860A6
:1010800000BF3048006800F4003000900198401C18
:101090000190009818B90198B0F5A06FF1D12948D6
:1010A000006800F4003010B10120009001E0002041
:1010B00000900098012843D12348006840F01000B8
:1010C000214908600846006820F0030008600846CF
:1010D000006840F0020008601A48406819494860FA
:1010E0000846406848600846406840F480604860B0
:1010F0000846406820F47C1048600846406840F488
:10110000E81048600846006840F08070086000BF42
:101110000C48006800F000700028F9D009484068C9
:1011200020F00300074948600846406840F002008C
:10113000486000BF0348406800F00C000828F9D15F
:101140000CBD00000010024000200240704700006B
:1011500010B51348006840F00100114908600846C6
:101160004068104908400E494860084600680E492A
:1011700008400B4908600846006820F48020086099
:101180000846406820F4FE0048604FF41F00886065
:10119000FFF768FF4FF000600449086010BD0000D1
:1011A000001002400000FFF8FFFFF6FE08ED00E02F
:1011B00021B1028842F08002028004E002884FF6EA
:1011C0007F731A400280704721B1028842F0010209
:1011D000028004E002884FF6FE731A4002807047D6
:1011E00070B5002400220023058C4FF6FE763540B2
:1011F0000584028C8388048B4FF68F752C40B51EB6
:101200002C400D882C43751E2A400D892A434D8899
:101210002A43144DA8420BD0134DA84208D0134DB9
:10122000A84205D0124DA84202D0124DA84213D1B7
:101230004FF6F7752A404D892A434FF6FB752A4031
:101240008D882A434FF6FF652B404FF6FF552B4004
:101250008D892B43CD892B4383800483CD8885865C
:10126000028470BD002C0140003401400040014068
:1012700000440140004801400A460021018B4FF61E
:10128000F7731940114301837047000070B50024C3
:1012900000220023058C4FF6EF7635400584028C42
:1012A0008388048B48F6FF752C404FF6FF452C4091
:1012B0000D884FF6FF7606EA05252C434FF6DF75BD
:1012C0002A400D8906EA05152A434D8806EA0515C8
:1012D0002A43154DA84202D0144DA8421DD14FF605
:1012E0007F752A404D894FF6FF7606EA05152A4399
:1012F0004FF6BF752A408D8806EA05152A434FF63A
:10130000FF352B404FF2FF752B408D8906EA85058E
:101310002B43CD8906EA85052B4383800483CD8842
:101320000587028470BD0000002C0140003401409C
:101330000A460021018B4FF2FF7319404FF6FF73ED
:1013400003EA0223194301837047000070B50024AB
:1013500000220023058C4FF6FF6635400584028C81
:101360008388848B4FF68F752C404FF6FC752C408C
:101370000D882C434FF6FF552A400D894FF6FF7616
:1013800006EA05252A434D8806EA05252A43154D18
:10139000A84202D0144DA8421DD14FF2FF752A4039
:1013A0004D894FF6FF7606EA05252A434FF6FF35AD
:1013B0002A408D8806EA05252A434EF6FF752B4004
:1013C0004DF6FF752B408D8906EA05152B43CD8917
:1013D00006EA05152B4383808483CD8885870284A4
:1013E00070BD0000002C0140003401400A4600217D
:1013F000818B4FF6F77319401143818370470000CA
:1014000070B5002200230024058C4EF6FF7635408F
:101410000584038C8488828B48F6FF752A404FF63A
:10142000FF452A400D884FF6FF7606EA05252A4338
:101430004DF6FF752B400D8906EA05352B434D8887
:1014400006EA05352B430B4DA84202D00A4DA842AF
:1014500008D14BF6FF752C408D894FF6FF7606EAD2
:1014600085152C4384808283CD88A0F84050038466
:1014700070BD0000002C0140003401400A460021EC
:10148000818B4FF2FF7319404FF6FF7303EA02237B
:101490001943818370478186704701877047818730
:1014A0007047A0F840107047002202881D4B9842F8
:1014B0000ED01D4B98420BD0B0F1804F08D01B4B83
:1014C000984205D01A4B984202D01A4B984204D148
:1014D0004FF68F731A404B881A43174B984207D028
:1014E000164B984204D04FF6FF431A40CB881A435C
:1014F00002808B8883850B8803850A4B98420BD02A
:10150000094B984208D00E4B984205D00D4B98429B
:1015100002D00D4B984201D10B7A038601238382BE
:1015200070470000002C01400034014000040040DE
:1015300000080040000C0040001000400014004073
:1015400000400140004401400048014010B540F215
:101550002551094800F002F901280CD1064800F095
:10156000C5F90649087001200549087040F2255167
:10157000014800F0D8F810BD003801402E000020CE
:101580002F00002010B540F225512B4800F0F3F851
:1015900001281BD140F22551274800F0C4F8264805
:1015A00000F0A4F9C4B2254890F8650063280ADA6F
:1015B000224890F8651090F86500401C1F4A82F898
:1015C00065001046445401201D49087040F2244132
:1015D000194800F0D0F801282CD1174800F086F9FE
:1015E0000020164991F86510144A50540120114604
:1015F00081F8640013480078C0B9084690F8650087
:10160000002813DD084690F865200F48FEF78AFD94
:1016100000200A4991F865100B4A5054074890F889
:1016200065000A4908700120064908700020034936
:1016300081F8650010BD0000004800405400002003
:101640003200002031000020BA00002030000020CD
:1016500010B586B0044601218804FFF71BFC012168
:101660000820FFF727FC4FF48060ADF8140003203A
:101670008DF8160018208DF8170005A92348FEF7ED
:10168000B1FE4FF40060ADF8140048208DF817004B
:1016900005A91E48FEF7A6FE01940020ADF808003B
:1016A000ADF80A00ADF80C000C20ADF80E000020DB
:1016B000ADF8100001A9164800F0ACF8012114485B
:1016C00000F040F84021124800F024F8012240F2D6
:1016D00025510F4800F079F8012240F224410C48CE
:1016E00000F073F827208DF8000000208DF801002D
:1016F0008DF8020001208DF803006846FFF73EFADE
:10170000034800F0F3F806B010BD0000000C0140E3
:101710000048004001F40072B2F5007F00D100BF24
:10172000CA430280704710B50022002340F66A14B5
:10173000A14200D100BF0A1201249440A3B2DC43AD
:10174000048010BD21B1828942F40052828104E0FC
:1017500082894DF6FF731A4082817047024600204D
:10176000B1F5007F00D100BF13880B400BB1012001
:1017700000E00020704770B50246002400230025D9
:10178000002040F66A16B14200D100BFC1F34215F5
:1017900001F01F03012606FA03F3012D02D19689F9
:1017A000334006E0022D02D1168A334001E0968ACA
:1017B00033400C12012606FA04F41688344013B1A3
:1017C0000CB1012000E0002070BDF0B503460024FC
:1017D00000260025002040F66A17B94200D100BF5C
:1017E0001846C1F3421401F01F06012707FA06F557
:1017F000012C01D10C3004E0022C01D1103000E0AA
:1018000014301AB107682F43076002E00768AF433E
:101810000760F0BD2DE9F04786B005460E4600246E
:10182000A24600BFA1460027B08900B100BF2F46E5
:101830002C8A4CF6FF700440F08804432C82AC895B
:101840004EF6F3100440B08831890843718908438B
:101850000443AC81AC8A4FF6FF400440B089044396
:10186000AC8201A8FFF736FB1F48874202D1DDF8A2
:1018700010A001E0DDF80CA0A88900F4004040B100
:101880000AEBCA0000EB0A1031684900B0FBF1F81E
:1018900007E00AEBCA0000EB0A1031688900B0FBD0
:1018A000F1F86420B8FBF0F004012009642101FB89
:1018B0001089A88900F4004040B1322000EBC90033
:1018C000B0FBF1F000F00700044308E0322000EB29
:1018D00009106421B0FBF1F000F00F0004432C81EB
:1018E00006B0BDE8F0870000003801400146888856
:1018F000C0F308007047C1F308028280704700BF40
:10190000FEE70000004870475000002002E008C8D1
:10191000121F08C1002AFAD170477047002001E069
:1019200001C1121F002AFBD1704700004FF4A060D4
:10193000FFF75CF9FEF70EFFFEF736FFFFF736FB09
:101940004FF41650FFF784FE00F0D2F8FEF734FE95
:10195000FEF756FE3D48FFF793F840F2DC50FEF7E5
:10196000AFFC0020FEF7D0FC0CE0FEF7D7FE01280C
:1019700008D1374908700A20FEF75CFE4FF4FA6080
:10198000FEF79EFC324800780028EED0FEF7ECFC13
:10199000C820FEF795FCFEF715FD55E02D480078B0
:1019A00018B1002000F064F84EE02B48007810B128
:1019B00001202649887129480088002804DD27482D
:1019C0000088401E2549088025492048FFF7AEF8C9
:1019D0002148007868B30025002407E02048001D56
:1019E000005D08B9681CC5B2601CC4B2042CF5DBEC
:1019F000032D1ADB1B480078D0B901201949087063
:101A000019480078401C18490870084600780228D8
:101A10000EDB4FF47A71462000F057F801200D4993
:101A20000870002000F024F80EE000200D49087036
:101A300000BFFFF791F90D4890F8640018B100203D
:101A40000A4981F8640000BFA8E7000040000020B8
:101A50003400002035000020360000203C0000202B
:101A6000BA0100203F0000203E000020540000206A
:101A700010B5044600231A461946184600F03CF8F3
:101A80002046FEF71DFC10BD2DE9F04104460F462F
:101A9000642C00DD64240CB9BDE8F08197FBF4F000
:101AA000C6B2012E00DA012601250AE000232A46EB
:101AB0001946284600F020F83046FEF701FC681C65
:101AC000C5B2A542F2DD00BFE6E770B504460D469B
:101AD000642C00DD6424002C00DA0024E2B2E0B2C1
:101AE0000023194600F008F82846FEF7E9FB70BD10
:101AF00010B5FFF785F810BD2DE9F04104460F46FB
:101B000015461E4621460848FFF7C5FC39460648DB
:101B1000FFF7C3FC29460448FFF7C1FC31460248E1
:101B2000FFF7BFFCBDE8F0810008004010B5044697
:101B300000BF80210448FFF711FE0028F9D021469C
:101B40000148FFF7D8FE10BD00480040004040406B
:101B50004040404040404141414141404040404080
:101B6000404040404040404040404040400502022C
:101B700002020202020202020202020202202020EB
:101B80002020202020202002020202020202909047
:101B90009090909010101010101010101010101045
:101BA0001010101010101010020202020202888899
:101BB00088888888080808080808080808080808A5
:101BC000080808080808080802020202400000008D
:101BD0004D1B0008F41B000800000020540000000A
:101BE0000C190008481C000854000020740500006F
:101BF0001C19000800000000010203040102030494
:101C00000607080902040608C0F9A4B0999282F8F0
:101C10008090010002000400080010002000400035
:101C20008000000000000000000000000000000034
:101C300000000000000000000000000000000000A4
:081C400000000000000000009C
:04000005080000ED02
:00000001FF
